{
  "contractName": "Election",
  "abi": [
    {
      "constant": true,
      "inputs": [],
      "name": "candidatesCount",
      "outputs": [
        {
          "name": "",
          "type": "uint256"
        }
      ],
      "payable": false,
      "stateMutability": "view",
      "type": "function",
      "signature": "0x2d35a8a2"
    },
    {
      "constant": true,
      "inputs": [
        {
          "name": "",
          "type": "uint256"
        }
      ],
      "name": "candidates",
      "outputs": [
        {
          "name": "id",
          "type": "uint256"
        },
        {
          "name": "name",
          "type": "string"
        },
        {
          "name": "voteCount",
          "type": "uint256"
        }
      ],
      "payable": false,
      "stateMutability": "view",
      "type": "function",
      "signature": "0x3477ee2e"
    },
    {
      "constant": true,
      "inputs": [],
      "name": "candidate",
      "outputs": [
        {
          "name": "",
          "type": "string"
        }
      ],
      "payable": false,
      "stateMutability": "view",
      "type": "function",
      "signature": "0x6c8381f8"
    },
    {
      "constant": true,
      "inputs": [
        {
          "name": "",
          "type": "address"
        }
      ],
      "name": "voters",
      "outputs": [
        {
          "name": "",
          "type": "bool"
        }
      ],
      "payable": false,
      "stateMutability": "view",
      "type": "function",
      "signature": "0xa3ec138d"
    },
    {
      "inputs": [],
      "payable": false,
      "stateMutability": "nonpayable",
      "type": "constructor",
      "signature": "constructor"
    },
    {
      "anonymous": false,
      "inputs": [
        {
          "indexed": false,
          "name": "indexed_candidateId",
          "type": "uint256"
        }
      ],
      "name": "votedEvent",
      "type": "event",
      "signature": "0xfff3c900d938d21d0990d786e819f29b8d05c1ef587b462b939609625b684b16"
    },
    {
      "constant": false,
      "inputs": [
        {
          "name": "_candidateId",
          "type": "uint256"
        }
      ],
      "name": "vote",
      "outputs": [],
      "payable": false,
      "stateMutability": "nonpayable",
      "type": "function",
      "signature": "0x0121b93f"
    }
  ],
  "bytecode": "0x608060405234801561001057600080fd5b5061005e6040805190810160405280600c81526020017f526168756c2047616e64686900000000000000000000000000000000000000008152506100b0640100000000026401000000009004565b6100ab6040805190810160405280600d81526020017f4e6172656e647261204d6f6469000000000000000000000000000000000000008152506100b0640100000000026401000000009004565b6101d2565b6002600081548092919060010191905055506060604051908101604052806002548152602001828152602001600081525060016000600254815260200190815260200160002060008201518160000155602082015181600101908051906020019061011c92919061012d565b506040820151816002015590505050565b828054600181600116156101000203166002900490600052602060002090601f016020900481019282601f1061016e57805160ff191683800117855561019c565b8280016001018555821561019c579182015b8281111561019b578251825591602001919060010190610180565b5b5090506101a991906101ad565b5090565b6101cf91905b808211156101cb5760008160009055506001016101b3565b5090565b90565b610643806101e16000396000f3fe60806040526004361061006d576000357c0100000000000000000000000000000000000000000000000000000000900463ffffffff1680630121b93f146100725780632d35a8a2146100ad5780633477ee2e146100d85780636c8381f81461019a578063a3ec138d1461022a575b600080fd5b34801561007e57600080fd5b506100ab6004803603602081101561009557600080fd5b8101908080359060200190929190505050610293565b005b3480156100b957600080fd5b506100c2610491565b6040518082815260200191505060405180910390f35b3480156100e457600080fd5b50610111600480360360208110156100fb57600080fd5b8101908080359060200190929190505050610497565b6040518084815260200180602001838152602001828103825284818151815260200191508051906020019080838360005b8381101561015d578082015181840152602081019050610142565b50505050905090810190601f16801561018a5780820380516001836020036101000a031916815260200191505b5094505050505060405180910390f35b3480156101a657600080fd5b506101af610559565b6040518080602001828103825283818151815260200191508051906020019080838360005b838110156101ef5780820151818401526020810190506101d4565b50505050905090810190601f16801561021c5780820380516001836020036101000a031916815260200191505b509250505060405180910390f35b34801561023657600080fd5b506102796004803603602081101561024d57600080fd5b81019080803573ffffffffffffffffffffffffffffffffffffffff1690602001909291905050506105f7565b604051808215151515815260200191505060405180910390f35b6000803373ffffffffffffffffffffffffffffffffffffffff1673ffffffffffffffffffffffffffffffffffffffff16815260200190815260200160002060009054906101000a900460ff16151515610354576040517f08c379a00000000000000000000000000000000000000000000000000000000081526004018080602001828103825260138152602001807f566f74657220616c726561647920766f7465640000000000000000000000000081525060200191505060405180910390fd5b60008111801561036657506002548111155b15156103da576040517f08c379a000000000000000000000000000000000000000000000000000000000815260040180806020018281038252600a8152602001807f496e76616c69642049640000000000000000000000000000000000000000000081525060200191505060405180910390fd5b60016000803373ffffffffffffffffffffffffffffffffffffffff1673ffffffffffffffffffffffffffffffffffffffff16815260200190815260200160002060006101000a81548160ff02191690831515021790555060016000828152602001908152602001600020600201600081548092919060010191905055507ffff3c900d938d21d0990d786e819f29b8d05c1ef587b462b939609625b684b16816040518082815260200191505060405180910390a150565b60025481565b6001602052806000526040600020600091509050806000015490806001018054600181600116156101000203166002900480601f0160208091040260200160405190810160405280929190818152602001828054600181600116156101000203166002900480156105495780601f1061051e57610100808354040283529160200191610549565b820191906000526020600020905b81548152906001019060200180831161052c57829003601f168201915b5050505050908060020154905083565b60038054600181600116156101000203166002900480601f0160208091040260200160405190810160405280929190818152602001828054600181600116156101000203166002900480156105ef5780601f106105c4576101008083540402835291602001916105ef565b820191906000526020600020905b8154815290600101906020018083116105d257829003601f168201915b505050505081565b60006020528060005260406000206000915054906101000a900460ff168156fea165627a7a723058208d303b41045bfeec959c9e2ebd3471c6ffd84d3faedf5f777691a7eaeae304110029",
  "source": "pragma solidity >=0.4.22 <0.6.0;\n\ncontract Election{\n    //model the candidate\n    struct Candidate{\n        uint id;\n        string name;\n        uint voteCount;\n    }\n    //store candidates\n    //store accounts that have voted\n    mapping(address => bool) public voters;\n\n    //fetch candidate\n    mapping(uint => Candidate) public candidates;\n    //store candidates count\n    uint public candidatesCount;\n\n    //voted event\n    event votedEvent(\n        uint indexed_candidateId\n    );\n\n    string  public candidate;\n    //constructor\n    constructor () public{\n        // candidate = \"Rahul Gandhi\";\n        addCandidate(\"Rahul Gandhi\");\n        addCandidate(\"Narendra Modi\");\n    }\n\n    function addCandidate (string memory _name) private{\n        candidatesCount++;\n        candidates[candidatesCount] = Candidate(candidatesCount, _name, 0);\n    }\n\n    function vote(uint _candidateId) public{\n        //require that they haven't voted before\n        require(!voters[msg.sender], \"Voter already voted\");\n\n        //require a valid candidate\n        require(_candidateId > 0 && _candidateId <= candidatesCount, \"Invalid Id\");\n\n        //record that the voter has voted\n        voters[msg.sender] = true;\n\n        //update Candidate vote count\n        candidates[_candidateId].voteCount++;\n\n        //trigger voted event\n        emit votedEvent(_candidateId);\n    }\n}",
  "sourcePath": "/home/kratos/election/contracts/Election.sol",
  "compiler": {
    "name": "solc",
    "version": "0.5.0+commit.1d4f565a.Emscripten.clang"
  },
  "schemaVersion": "3.0.1",
  "updatedAt": "2019-01-13T10:02:59.547Z",
  "devdoc": {
    "methods": {}
  },
  "userdoc": {
    "methods": {}
  }
}